:020000040800F2
:10000000D831002099010008EF1D00080F1B0008DF
:10001000ED1D00084B040008192300080000000033
:1000200000000000000000000000000001010008C6
:100030000705000800000000450100087D1E0008BB
:10004000B3010008B3010008B3010008B3010008C0
:10005000B3010008B3010008B3010008B3010008B0
:10006000B3010008B3010008B3010008B3010008A0
:10007000B3010008B3010008B3010008B301000890
:10008000C5040008D1040008B3010008B30100084A
:10009000B3010008B3010008B3010008B301000870
:1000A000B3010008091F0008B3010008B3010008EC
:1000B000B3010008B3010008B3010008B301000850
:1000C000B3010008B3010008B3010008B301000840
:1000D000B3010008B30100080D230008B3010008B4
:1000E000B3010008B3010008B3010008DFF80CD029
:1000F00000F08AF900480047E9250008D8310020BF
:10010000224B19680868B0E8F00F80F30988BFF344
:100110006F8F4FF0000080F311884EF00D0E704786
:100120000000000006480068006880F3088862B696
:1001300061B6BFF34F8FBFF36F8F00DF00BF00BF0B
:1001400008ED00E0EFF30980BFF36F8F0F4B1A68E3
:1001500020E9F00F106008B54FF0500080F31188CF
:10016000BFF34F8FBFF36F8F03F072FB4FF00000B0
:1001700080F31188BDE8084019680868B0E8F00FFE
:1001800080F30988BFF36F8F704700BF1400002011
:10019000EFF3058070470000064880470648004797
:1001A000FEE7FEE7FEE7FEE7FEE7FEE7FEE7FEE727
:1001B000FEE7FEE7071F0008ED000008202A04DB29
:1001C000203A21FA02F00021704721FA02F3D040D0
:1001D000C2F12002914008431946704740EA0103EA
:1001E0009B0703D009E008C9121F08C0042AFAD2ED
:1001F00003E011F8013B00F8013B521EF9D27047B1
:10020000D2B201E000F8012B491EFBD27047002258
:10021000F6E710B513460A4604461946FFF7F0FF05
:10022000204610BD421C10F8011B0029FBD1801A8A
:10023000704730B504460020034600E05B1C934243
:1002400003D2E05CCD5C401BF8D030BD80EA0102F7
:1002500010B502F00043400022D04A001FD0010E2A
:1002600001EB1261C0F35600C2F3560240F40000E5
:1002700042F40002A0FB022000047F39140400D0E5
:10028000401C50EA124001D44000491EC2B20C0684
:1002900004EBD010401C4008802A02D003E000206C
:1002A00010BD20F00100002900DA0020184310BD25
:1002B00030B480EA010202F0004530F0004221F043
:1002C000004013D090B1C30DD40DC2F31601C0F39A
:1002D0001600E41A41F4000140F400027D3491421A
:1002E00001D3641C00E04900002C02DA30BC00207D
:1002F00070474FF400000023914201D3891A034351
:1003000040084FEA4101F7D151B1914202D14FF07B
:10031000004105E002D24FF0010101E06FF0010160
:1003200003EBC450284430BC00F036B896230022BA
:10033000114600F03AB82DE9F05F054600209246DC
:100340009B4688460646814640241BE02846414697
:1003500047462246FFF732FF53465A46C01A91419C
:1003600010D311461846224600F060F82D1A67EBAC
:1003700001084F4622460120002100F057F817EBF4
:1003800000094E41201EA4F10104DFDC484631463D
:100390002A464346BDE8F09F0029A8BF7047401C8D
:1003A000490008BF20F00100704710B4B0FA80FC8B
:1003B00000FA0CF050EA010404BF10BC704749B1C8
:1003C000CCF1200421FA04F411FA0CF118BF012138
:1003D00021430843A3EB0C01CB1D4FEA00614FEA18
:1003E000102042BF002010BC704700EBC3501044E7
:1003F0000029A4BF10BC7047401C490008BF20F072
:10040000010010BC70470000064C074D06E0E06894
:1004100040F0010394E8070098471034AC42F6D34B
:10042000FFF768FE8C500008AC500008202A04DB5F
:10043000203A00FA02F1002070479140C2F12003F7
:1004400020FA03F3194390407047FEE708B50446CD
:100450004FF0FF352A466946D4F8900003F044FC7B
:10046000D4F898119DF800008847F3E704464FF050
:10047000FF363146A06803F0D3FC0128F9D1E068CB
:1004800002F0D5FF98B1002502E06D1C802D07DA3F
:10049000611900221031E06803F026FC0028F4D135
:1004A000AAB204F11001206801F0D0FAE1E70023BC
:1004B0001A461946A06803F0BBFA012003F0A4F81D
:1004C000D7E70000014800F0A3B90000D0030020E6
:1004D000014800F09DB900001404002030B590F8E8
:1004E00040500124AC40C56B6C6004686360436895
:1004F000102B036803D099600068C26030BD9A6019
:100500000068C16030BD704772B6FEE708B50448A8
:100510000090044B044A05A1064801F0F9FA08BD11
:1005200039050008D00300208C030020434F4D31D3
:1005300000000000902500202DE9F843644C654B35
:10054000074694F83060024606EB4601A3F2845059
:1005500000EBC10540F223104643A3F22450A3F15F
:10056000180C304429460646CDF800C002F054F875
:1005700000234FF00108022833D0032831D001288E
:1005800079D15448534E806806F10C06000A38D0E1
:100590000C2872D01E284DD021286CD14D48A0F1D6
:1005A0007007C5781C2D00D31C251C213846FFF789
:1005B0002EFE2A4631463846FFF710FE4548703871
:1005C0004168216281686162C168A1620169E1627A
:1005D000818AE181C18A2182008B60823D48303866
:1005E00070E0A9783046491CA9702B7085F803800B
:1005F000FD2F6BD10221E970C370BDE8F84302F012
:1006000067BB3448A0F19807C578092D00D30925A8
:1006100009213846FFF7FBFD2A4631463846FFF7E9
:10062000DDFD2C4898380078A0702A4884F80080B6
:10063000483847E02748A0F18C07C5781C2D00D327
:100640001C251C213846FFF7E2FD2A463146384674
:10065000FFF7C4FD1F4D8C3D686801F0B3FF60617A
:10066000A86801F0AFFFA061E86801F0ABFFE061AE
:1006700005F1500026E029E0FFE71649A1F15400FA
:10068000CA780A2A00D30A220360436003813146F4
:10069000FFF7A4FD0F4854380178E17041782171CB
:1006A00081786171C178A1710179E171417921721B
:1006B00081796172C179A172017AE172407A207305
:1006C00004482438BDE8F84302F088BEBDE8F8834A
:1006D0007C000020B02C002088B0FFF717FF03F04B
:1006E000FBFC114C0125079002F03AFBE37AA27A59
:1006F000617A207A0DF10C0C8CE80F00E279A17977
:1007000060798DE807002379227BE178074801F0C2
:1007100005FE207810B1607800B96570C82107A87F
:1007200002F098FFE0E700007C000020185000086D
:1007300010B590F821100022022905D00421816310
:1007400080F82020012010BD01680B6823F00E0303
:100750000B6001680B6823F001030B6090F84030D8
:10076000C46B012101FA03F3636080F8211080F863
:100770002020104610BD000010B590F82110002474
:10078000022903D00421816301243DE001680A6845
:1007900022F00E020A6001680A6822F001020A6073
:1007A0001A4A0168914201D1012121E0174A14320D
:1007B000914201D110211BE0144A2832914201D10B
:1007C000891515E0114A3C32914201D189140FE09C
:1007D0000E4A5032914202D14FF4803108E00B4A68
:1007E0006432914202D14FF4801101E04FF08071E8
:1007F000064A083A5160012180F82110002180F852
:100800002010416B01B18847204610BD080002400E
:100810002DE9F05FC16B0C6801680B68D0F840C02F
:10082000042202FA0CF2494DDFF824A1494E4A4F46
:10083000DFF828B1DFF828E122422CD05A072AD568
:100840000A68920603D40A6822F004020A6001686A
:10085000A94201D1042219E0514501D1402215E0FD
:10086000B14202D14FF4806210E0B94202D14FF49C
:1008700080420BE0594502D14FF4802206E07145D9
:1008800002D14FF4800201E04FF080622F49083915
:100890004A60C16A3BE04FF0020808FA0CF818EA17
:1008A000040F4FF000094FF0010235D05FEA837862
:1008B00032D50B689B0605D40B6823F00A030B6046
:1008C00080F821200168A94201D1022219E0514596
:1008D00001D1202215E0B14202D14FF4007210E0A4
:1008E000B94202D14FF400520BE0594502D14FF406
:1008F000003206E0714502D14FF4001201E04FF0E2
:100900000072124908394A6080F82090816A0029F3
:100910001AD0BDE8F05F0847082505FA0CF5254216
:1009200012D01B0710D50B6823F00E030B6090F854
:100930004010C36B02FA01F15960826380F82120F4
:1009400080F82090016BE2E7BDE8F09F08000240CC
:100950001C000240300002404400024058000240A7
:100960006C00024030B528B308C81349142219445A
:10097000B1FBF2F18900C163104981630221417723
:100980001A6843F6F0718A43D0E900142143D0E994
:1009900002452C432143046921434469214384696E
:1009A00021431143196000214163012242770177FD
:1009B000084630BD012030BDF8FFFDBF00000240F9
:1009C00070B5044690F82000002501280CD00120C5
:1009D00084F8200094F821600020012E06D084F8CD
:1009E00020000225284670BD022070BD022684F832
:1009F0002160A0632068066826F001060660204694
:100A0000FFF76CFDE06A00282068016802D041F021
:100A10000E0106E021F0040101602068016841F048
:100A20000A0101602068016841F001010160D9E715
:100A30002DE9F84FDFF8B891002409F1040A0AF112
:100A4000040B23460F270BF1040EC9E00125A54036
:100A50002A40AA427DD1674ED1F804C0ACEB06080B
:100A6000B44532D014DCBCF1030F3AD009DCBCF140
:100A7000000F2AD0BCF1010F1CD0BCF1020F31D104
:100A80001DE0BCF1110F17D0BCF1120F2AD119E0F3
:100A9000B8F5881F19D006DCB8F5803F15D0B8F539
:100AA000801F1FD111E0B8F5001F0ED0B8F5041F4C
:100AB00018D10AE0CB6815E0CB681B1D12E0CB68AB
:100AC00008330FE0CB680C330CE08B682BB1012BA3
:100AD0004FF0080303D0456104E0042302E0056100
:100AE00000E00023FF2A01D8064601E000F10406D9
:100AF0004FEA840501D9A5F12005D6F8008007FA50
:100B000005FC28EA0C0803FA05F548EA0508C6F8CA
:100B100000804D68ED0062D5374DAE6946F00106A4
:100B2000AE61AD6924F0030605F001050095334D73
:100B300006EB050CDCF80850A607360F07FA06F896
:100B400025EA0805DFF8B880404503D14FF00008DA
:100B500017E044E0DFF8AC80404502D14FF00108D7
:100B60000FE0DFF8A480404502D14FF0020808E012
:100B7000DFF89880404502D14FF0030801E04FF0C4
:100B8000040808FA06F848EA0508CCF808804D6819
:100B9000D9F80060ED034D4601D5164300E09643B9
:100BA0002E604D68DAF80060AD03554601D5164356
:100BB00000E096432E604D68DBF80060ED025D4674
:100BC00001D5164300E096432E604D68DEF80060C4
:100BD000AD02754601D5164300E096432E60641CB5
:100BE0000D682A46E5407FF431AFBDE8F88F00007C
:100BF00000040140000011100010024000000140FC
:100C000000080140000C01400010014000140140A8
:100C10000AB1016170470904FBE7000001488068E0
:100C200070470000040000200248816802781144E7
:100C30008160704704000020074810B5016841F04A
:100C400010010160032000F095F8002000F006F884
:100C500000F03EF8002010BD0020024000B5014623
:100C600087B00022192000F065F8192000F054F830
:100C70001348816941F400618161806905A900F42C
:100C800000600690684600F01DF900F04BF90D4930
:100C90000D4AB0FBF1F10D48491E0260416040F27F
:100CA000E7320021C0E90321816000F013FB10B19D
:100CB000012007B000BD054800F03AFBF9E700004D
:100CC0000010024040420F00002C01405804002058
:100CD0000F4808B5816941F001018161816901F026
:100CE00001010091C16941F08051C161C0690022D8
:100CF00000F0805000900F21901E00F01BF8054876
:100D0000416821F0E06141F00071416008BD0000E0
:100D10000010024000000140002809DB00F01F0223
:100D2000012191404009800000F1E020C0F800114D
:100D300070470000F0B40E4B1B680C46C3F302234F
:100D4000C3F10705042D00D90425191D072901D277
:100D5000002300E0DB1E012606FA05F1491E2140B2
:100D600099409E40761E16403143F0BC01F0E6BA31
:100D70000CED00E0064900F0070208684FF6FF039B
:100D8000184040EA0220034A104308607047000000
:100D90000CED00E00000FA052DE9F0470F460500D4
:100DA00061D0434E306800F00700B84209D2306885
:100DB00020F0070038433060306800F00700B84288
:100DC00051D128683B4C810712D5400703D5606894
:100DD00040F4E06060602878000703D5606840F464
:100DE000605060606068A96820F0F00008436060AF
:100DF0002878C00728D06868012810D02168022808
:100E000010D0890700292EDA616821F0030101431F
:100E10006160FFF703FF804641F288390DE02168E9
:100E20008903EFE78901EDE7FFF7F8FEA0EB080182
:100E3000494502D90320BDE8F0876068696800F081
:100E40000C00B0EB810FEFD1306800F00700B84222
:100E50000BD9306820F0070038433060306800F06C
:100E60000700B84201D00120E5E72878400705D502
:100E70006068E96820F4E060084360602878000753
:100E800006D56068296920F4605040EAC1006060BE
:100E900000F058F86168084AC1F30311515CC8407A
:100EA0000649086006480068FFF7D8FE0020C2E740
:100EB00000200240001002402C44000810000020D6
:100EC000080000200F2202600C4A536803F003035D
:100ED0004360536803F0F0038360536803F4E063F6
:100EE000C36052684FF4E06303EAD202026104482F
:100EF000006800F007000860704700000010024022
:100F0000002002400448054900684968044AC1F3CA
:100F10000221515CC84070471000002000100240C0
:100F20003C4400080448054900684968044AC1F384
:100F3000C221515CC84070471000002000100240E0
:100F40003C44000812A185B00FC98DE80F0014A021
:100F5000144A006804905168134801F00C03042BF4
:100F600010D0082B0ED1C1F38343C9031DF8030031
:100F70000AD5516804AAC1F34041515C0A4A504362
:100F8000B0FBF1F005B0704708494843FAE70000AC
:100F900002030405060708090A0B0C0D0E0F1010BA
:100FA000010200000010024000127A0000093D001A
:100FB0002DE9F84F040070D02078C04DC00749D00B
:100FC0006868C0F38100012807D06868C0F3810019
:100FD000022809D16868C00306D52868800339D57E
:100FE00060680028E7D035E06068B0F5803F0BD03E
:100FF00010B1B0F5A02F11D0286820F480302860FF
:10100000286820F4802002E0286840F480302860BE
:10101000606890B1FFF702FE06460AE0286840F4D7
:1010200080202860F0E700BFFFF7F8FD801B6428F0
:1010300073D828688003F7D50CE0FFF7EFFD06466C
:1010400005E000BFFFF7EAFD801B6428F0D82868A0
:101050008003F7D420789A4E80074FF001094FF0B3
:10106000000839D5686810F00C0F07D06868C0F325
:101070008100022809D16868C00306D42868800767
:1010800014D52069012808D110E02069B0B1C6F854
:101090000090FFF7C3FD074605E00AE1FFF7BEFD3C
:1010A000C01B0228C4D828688007F7D52868616962
:1010B00020F0F80040EAC10028600DE0C6F800808A
:1010C000FFF7ACFD074604E0FFF7A8FDC01B0228B0
:1010D00023D828688007F7D4207800072CD57948D2
:1010E000A169D9B1C0F80090FFF798FD074604E068
:1010F000FFF794FDC01B02280FD8686A8007F7D558
:1011000071484FF4FA510068B0FBF1F0009000BF55
:101110000098411E0091FAD20EE080E0C0F80080F5
:10112000FFF77CFD074604E0FFF778FDC01B0228AF
:1011300075D8686A8007F7D42078400760D5E869D9
:101140000027C00008D4E86940F08050E861E869F1
:10115000012700F0805000905C480168C90513D455
:101160000168834641F480710160FFF757FD8246B4
:1011700006E000BFFFF752FDA0EB0A0064284ED83E
:10118000DBF80000C005F5D5E06801280AD008B1F9
:10119000052813D0286A20F001002862286A20F070
:1011A000040002E0286A40F001002862E06841F291
:1011B000883B98B1FFF732FD82460BE0286A40F089
:1011C00004002862EEE700BFFFF728FDA0EB0A014C
:1011D00059455AD8286A8007F6D50CE0FFF71EFD5E
:1011E000824605E0FFF71AFDA0EB0A0159454CD8ED
:1011F000286A8007F6D41FB1E86920F08050E861C2
:10120000E06988B36968C1F38101022944D00228EA
:10121000C6F8608004D0FFF701FD044638E034E0F2
:10122000FFF7FCFC074604E0FFF7F8FCC01B0228B0
:101230002BD828688001F7D4206AB0F5803F05D10B
:101240006868A16820F4003008436860D4E90801A8
:101250000843696821F4741108436860C6F8609017
:10126000FFF7DCFC044606E025E000BFFFF7D6FCF4
:10127000001B022809D828688001F7D51BE000BFB1
:10128000FFF7CCFC001B022802D90320BDE8F88F31
:1012900028688001F4D40EE00128F7D06868226A3B
:1012A00000F48031914204D1616A00F470108842E8
:1012B00001D00120EAE70020E8E70000001002402A
:1012C00000004242800442421000002000700040B2
:1012D0007047704710B5040003D094F83D0010B17A
:1012E00007E0012010BD002084F83C00204600F0FB
:1012F0001EF8022084F83D00211D206800F00AFE3F
:10130000012084F8460084F83E0084F83F0084F809
:10131000400084F8410084F8420084F8430084F8D7
:10132000440084F8450084F83D00002010BD70475B
:1013300090F83D10012901D001207047022180F86A
:101340003D100168CA6842F00102CA6000680B499A
:10135000884208D0B0F1804F05D00949884202D0B8
:101360000849884204D1816801F00701062903D0A9
:10137000016841F00101016000207047002C01402C
:101380000004004000080040704770B50446006843
:1013900001694FF00005C943890715D4C168C943E5
:1013A000890711D4E91E0161012020772068806936
:1013B0008007204602D0FFF7E7FF04E000F098F82E
:1013C000204600F096F8257720680169C94349074F
:1013D00017D4C168C943490713D46FF004010161F0
:1013E000022020772068806910F4407F204602D0D8
:1013F000FFF7CAFF04E000F07BF8204600F079F820
:10140000257720680169C943090716D4C168C94313
:10141000090712D46FF008010161042020772068C9
:10142000C0698007204602D0FFF7AEFF04E000F05D
:101430005FF8204600F05DF8257720680169C94310
:10144000C90617D4C168C943C90613D46FF0100187
:101450000161082020772068C06910F4407F204691
:1014600002D0FFF791FF04E000F042F8204600F0C0
:1014700040F8257720680169C943C90708D1C168C8
:10148000C943C90704D1891E0161204600F032F822
:1014900020680169C943090609D4C168C94309061E
:1014A00005D46FF0800101612046FFF711FF20682D
:1014B0000169C943490609D4C168C943490605D42D
:1014C0006FF040010161204600F01EF820680169BC
:1014D000C94389060BD4C168C943890607D46FF094
:1014E000200101612046BDE87040FFF7F2BE70BDEB
:1014F0007047704700680349884201D1FFF794BBE9
:1015000070470000002C0140704738B5044690F841
:101510003E0020281CD181B17AB194F83C0001280A
:1015200016D0012084F83C002063204600F084FEA1
:10153000002803D1216B012901D0012038BD216889
:101540000A684A680092CA6842F01002CA6038BD50
:10155000022038BD70B50E46006816490024884246
:1015600000D1154C002508E061190023134A94317D
:10157000D4F8900002F00CFB6D1CB542F4DB4FF484
:10158000807204F194012068FFF7BFFF6068006873
:10159000016821F00401016008480068002807D0B4
:1015A00007494FF080500860BFF34F8FBFF36F8F34
:1015B00070BD000000440040902500207400002011
:1015C00004ED00E010B500680A49884211D10A49CB
:1015D00000200A4C81F83C004FF4807204F1940121
:1015E0002068FFF792FF60680068016821F004013D
:1015F000016010BD004400404803002090250020F9
:10160000F8B5026804461068D168536910F00F0FEE
:101610004FF0000553D003F0010601F490773743F3
:101620005FD0C20705D0CA0503D5226C42F0010283
:101630002264420705D5DA0703D0226C42F0020289
:101640002264820705D5DA0703D0226C42F0040237
:101650002264020707D501F02002324303D0226C36
:1016600042F008022264226C002A34D0800604D59D
:10167000880602D5204600F027FD20684069216CCD
:10168000C0F38010090700D430B3204600F0FBFC03
:101690002068416949061BD5416921F0400141613B
:1016A000A06BA8B158494163A06BFFF765F800280B
:1016B00011D0A06B416B01B0BDE8F0400847830634
:1016C0000FD58B060DD52046BDE8F84000F0FCBCD8
:1016D0002046FFF777FFF8BD2046FFF773FF25642C
:1016E000F8BD266B2023012E52D1C60650D5CE065A
:1016F0004ED5106850680090506940062AD5A16BFD
:10170000086840680004000CEAD0A68D8642E7D93C
:10171000E0858869202818D0D06820F48070D060D7
:101720002068416921F0010141612068416921F08F
:101730004001416184F83E3025632068C16821F092
:101740001001C160A06BFEF7F3FFA08DE18D401A80
:1017500081B219E0A08DE18D401A81B2E08D0028A0
:10176000BED00029BCD0D06820F49070D060206832
:10177000426922F00102426184F83E30256320680C
:10178000C26822F01002C2602046FFF7E3FEF8BDF7
:1017900005062BD50D0629D594F83D002128F6D154
:1017A000A068B0F5805F01D12069B0B1206A411C0A
:1017B0002162216800784860E08C401E0004000C23
:1017C000E084E4D12068C16821F08001C160206814
:1017D000C16841F04001C160F8BD206A0088C0F3D3
:1017E00008005060206A801C2062E5E74006F3D5BF
:1017F0004806F1D5D168204621F04001D16084F837
:101800003D3000F063F9F8BD811F000870B5040099
:1018100004D094F83D00002510B106E0012070BD11
:1018200084F83C50204600F023F8242084F83D0042
:101830002068C16821F40051C160204600F0A0FC7E
:101840002068016921F4904101612068416921F01B
:101850002A0141612068C16841F40051C1602564DA
:10186000202084F83D0084F83E00002070BD000078
:10187000F0B585B0002400940194029403940646C8
:101880003E4F03683E48022103223E4DBB4221D118
:10189000836943F480438361836903F48043049341
:1018A000836943F0040383618069039200F00400BC
:1018B00004900802CDE9000169462846FFF7B8F810
:1018C0002815CDE90004694628460294FFF7B0F8D0
:1018D00005B0F0BD2C4FBB42FAD1C36943F40033CD
:1018E000C361C36903F400330493836943F00403C1
:1018F00083618069039200F0040004900420CDE924
:10190000000169462846FFF793F80820CDE9000456
:10191000694628460294FFF78BF81D4D1B48802727
:10192000C5E90004C5E902472C616C61AC61284639
:10193000EC61FFF717F808B1FEF7E6FDB5636E62DC
:10194000134D12484435143001C5102091C510487C
:1019500045F8104944306C61AC61EC61FFF702F866
:1019600008B1FEF7D1FD75630022052126206E62C5
:10197000FFF7E0F92620FFF7CFF9A9E7003801408B
:101980000010024000080140004400406C0002408A
:10199000D0030020704770472DE9F843044690F8C3
:1019A0003D001F4616460D4620284CD1C5B1BEB19C
:1019B00094F83C00012846D0012084F83C004FF008
:1019C0000008C4F84080212084F83D00FFF726F984
:1019D000A6848146E684A068B0F5805F03D004E069
:1019E0000120BDE8F883206928B12E465FF000058C
:1019F00084F83C800EE00026FAE78021204600F0C3
:101A000053FCA0B9AEB116F8010B21684860E08C18
:101A1000401EE084E08C4B464FF000020097002807
:101A2000EBD14FF04001204600F03EFC30B10320E6
:101A3000D7E735F8020BC0F30800E6E7202084F86A
:101A40003D000020CDE70220CBE7000070B5044642
:101A500090F83D00202830D169B362B394F83C007F
:101A600001282AD0012084F83C002162A284E2846B
:101A700000252564212084F83D00636B104898629E
:101A8000636B1048D862636B0F481863606B134632
:101A900045632668606B321DFEF792FF21686FF088
:101AA0004000086084F83C502068416941F08001A2
:101AB0004161002070BD012070BD022070BD00009A
:101AC0004F2000087D200008911F000810B5006815
:101AD0000A49884204D10A480A49806802F0B6F8E7
:101AE0000848001F4068002807D007494FF0805081
:101AF0000860BFF34F8FBFF36F8F10BD00440040ED
:101B0000902500207800002004ED00E07047FEE7FB
:101B10002DE9F0418AB004461D4617460E46084698
:101B2000DDF84080FEF77EFB042803D000200AB0D9
:101B3000BDE8F0814FF4CE712046FEF768FBC4E9A2
:101B4000007503220021012001F00AFFA06000229D
:101B50000121802001F004FF01210F02E06000223A
:101B6000384601F0FDFEC4F898810023C4F89000C7
:101B70001A461946A06801F05BFF20A30DF1080C7E
:101B80000FCB8CE80F00F07800258DF80B00009546
:101B90002346802202A91D48019502F037FA012848
:101BA00002D11BA000F0BAFB01F080FE01461BA091
:101BB00000F0B4FB1FA30DF118080FCB88E80F004D
:101BC000F0788DF81B0000952346802206A91D4859
:101BD000019502F01BFA012802D11BA000F09EFB28
:101BE0003A4604F194012068FFF78FFC60680068B2
:101BF000016821F004010160012098E7434F4D780E
:101C00005F54585F5441534B000000006D040008BE
:101C100073656E645F6F6B0D0A0000004672656548
:101C200020686561703A20256C752062797465734F
:101C30000A000000434F4D785F52585F5441534BA8
:101C4000000000004D0400087265635F6F6B0D0AB1
:101C5000000000000D4808B5416941F001014161F3
:101C60004069002200F00100009005211020FFF7DC
:101C700061F81020FFF750F8002205211120FFF72E
:101C800059F8BDE808401120FFF746B8001002409F
:101C900000B587B01C2206496846FEF79FFA00216E
:101CA000684601F033F80349086007B000BD000042
:101CB00010440008000000202DE9F04385B0002505
:101CC0002A480095019502950395816941F010011C
:101CD0008161816901F010010491816941F0200165
:101CE0008161816901F020010491816941F0040161
:101CF0008161816901F004010491816941F0080169
:101D0000816180691A4F00F008004FF4005404907C
:101D1000002221463846FEF77BFFDFF8588000227C
:101D2000C0214046FEF774FFDFF84C9000220321EB
:101D30004846FEF76DFF009401240226CDE90246D5
:101D4000694638460194FEF773FEC0208DE87100A5
:101D500069464046FEF76CFE03208DE87100694637
:101D60004846FEF765FE05B0BDE8F083001002406E
:101D70000010014000080140000C01400C4810B563
:101D80000A4901604FF4E1314160002181600C2279
:101D9000C160C0E904128161C161FFF737FD00280D
:101DA00003D0BDE81040FEF7AFBB10BD00380140C6
:101DB000480300200C4810B50A4901604FF4E121A6
:101DC0004160002181600C22C160C0E90412816180
:101DD000C161FFF71BFD002803D0BDE81040FEF7EE
:101DE00093BB10BD004400408C030020FEE7FEE7DB
:101DF0001CB501F05BFD01460DA000F08FFA00213B
:101E00000120CDE900010B4602020FA1114802F0AA
:101E1000FDF80446012807D00FA000F07FFA641CEB
:101E200002D111A000F07AFA012000F063FFFBE775
:101E30004672656520686561703A20256C75206280
:101E4000797465730A000000464D555F7461736BC9
:101E500000000000D9060008B4B4BDA8C8CECEF179
:101E6000CAA7B0DC0D0A00004D61766C696E6BC8C4
:101E7000CECEF1D5BBB2BBD7E30D0A0010B55020D2
:101E800080F31188BFF34F8FBFF36F8F02F02AF9F1
:101E900018B104494FF080500860002080F3118889
:101EA00010BD000004ED00E030B58FB02821684679
:101EB000FEF7ADF914210AA8FEF7A9F901210804DB
:101EC000CDE900100024029402250491CDE90750C9
:101ED0004FF4E01009906846FFF76AF808B172B64F
:101EE000FEE70F20CDE90A054FF48060CDE90C40F4
:101EF00002210AA80E94FEF74FFF002801D072B607
:101F0000FEE70FB030BD70470148FFF73EBA000052
:101F100058040020F0B50268164B174C174D4FF0CF
:101F20008047984205D0B84203D0A04201D0A842D1
:101F300003D122F070064A683243984205D0B84275
:101F400003D0A04201D0A84203D122F44074CA6851
:101F500022434C6922F08002224302608A68C262F6
:101F60000A688262984201D10969016301214161D5
:101F7000F0BD0000002C01400004004000080040BB
:101F800010B5406A0021C185C184FFF71BFB10BD5D
:101F900070B5446A2068406994F83D10C0F3C010E1
:101FA0000025212904D118B1E584204600F083F8EA
:101FB0002068406994F83E10C0F38010222904D1B3
:101FC00018B1E585204600F05EF8206C40F0100066
:101FD00020642046FFF7F6FA70BD10B50146406A4E
:101FE0000968096889061BD40021C1850168CA688F
:101FF00022F48072CA6001684A6922F001024A61D3
:1020000001684A6922F040024A61202180F83E10AE
:10201000016B012904D10168CA6822F01002CA606C
:10202000016B012902D0FFF7B5FC10BD818DFFF7D0
:1020300091FA10BD10B5406A016B012902D0FFF77B
:10204000AAFC10BD818D4908FFF784FA10BD10B5B8
:102050000146406A0968096889060CD40021C184D8
:1020600001684A6922F080024A610068C16841F053
:102070004001C16010BDFFF729FD10BD10B5406AD9
:10208000FFF744FD10BD0168CA6822F49072CA606F
:1020900001684A6922F001024A61016B012904D1F9
:1020A0000168CA6822F01002CA60202180F83E1040
:1020B0000021016370470168CA6822F0C002CA604B
:1020C000202180F83D10704708B590F83E10222975
:1020D00001D0022008BD82684FF480539A4201D19A
:1020E000016921B1816A9A421BD04AB10AE00268B3
:1020F000816A5268C2F308020A80816A891C08E07A
:10210000026972B10268526802F07F020A70816A45
:10211000491C8162C18D491E0904090CC18503D087
:1021200019E002685268F1E70168CA6822F02002EB
:10213000CA600168CA6822F48072CA6001684A698C
:1021400022F001024A61202180F83E10016B012932
:1021500003D0FFF71FFC002008BD002101630168C8
:10216000CA6822F01002CA6001680A68D20602D565
:102170000A6849680091818DFFF7ECF9EBE70000F0
:1021800070B5044600680169E26821F440511143CA
:1021900001612169A0680843616908432168CA6830
:1021A00041F20C639A430243CA6020684169A26904
:1021B00021F44071114341611E492068884202D1D7
:1021C000FEF7B0FE01E0FEF79DFE00EBC00101EB63
:1021D0000012606864218000B2FBF0F3B3FBF1F3FE
:1021E0006FF018067343B2FBF0F5B2FBF0F605EBA7
:1021F0008305322303EB0515B5FBF1F5B6FBF1F6CC
:1022000005F0F00505EB0615B2FBF0F6B2FBF0F0B9
:10221000B0FBF1F06FF01802504306EB800003EBC7
:102220000010B0FBF1F0216800F00F002844886036
:1022300070BD00000038014038B5816282850025FC
:10224000134604460564222084F83E00A26B13481E
:102250009062A26B1248D062A26B12481063A06B0E
:102260000A4645632168A06B091DFEF7A9FB20689B
:1022700001684168009184F83C50C16841F4807164
:10228000C1602068416941F00101416120684169F4
:1022900041F040014161002038BD0000DB1F000813
:1022A00035200008911F00082DE9F0419846174697
:1022B0000E460446069D1DE0681C1BD02DB1FEF79E
:1022C000ADFCA0EB0800A84214D92068C16821F435
:1022D000D071C1602068416921F001014161202075
:1022E00084F83D0084F83E00002084F83C00032080
:1022F000BDE8F0812068006836EA000004D00020C4
:10230000B842D9D00020F3E70120F9E70148FFF7F0
:1023100077B900008C030020FEE700000FB4054BE6
:1023200010B503A9044A029800F028F810BC5DF823
:1023300014FB0000D1250008F00000200907090E59
:10234000002804DB00F1E02080F80014704700F062
:102350000F0000F1E02080F8141D704702E008C86B
:10236000121F08C1002AFAD170477047002001E00F
:1023700001C1121F002AFBD1704700002DE9FF4F59
:102380008BB09A460F460446002606E025280BD05F
:1023900052460D999047641C761C20780028F5D190
:1023A0000FB03046BDE8F08F0025A94601227D49D7
:1023B00000E0054314F8013F203B02FA03F0084215
:1023C000F7D120782E2817D114F8010F45F0040515
:1023D0002A280ED06FF02F022078A0F130010929B1
:1023E0000AD809EB890102EB410100EB0109641CE9
:1023F000F2E757F8049B641C20786C280DD004DCAD
:102400004C2812D06A2811D104E074280DD07A2803
:102410000CD10AE045F4001507E0617845F4801519
:10242000814202D1641C05F58015641C207869285E
:102430003ED006DC0028B3D063280BD0642804D13A
:1024400036E0732810D075285CD052460D9990471D
:10245000761CA5E017F8040B8DF8000000208DF81D
:102460000100E846012003E057F8048B4FF0FF30ED
:1024700069074FF0000501D40AE06D1C4D450DDAE7
:102480008542FADB18F805100029F6D106E06D1C2C
:102490008542FCDB18F805100029F8D12E4404E031
:1024A00018F8010B52460D9990476D1EF8D277E04F
:1024B00000200A90C5F302504FF00A0B02280CD0FE
:1024C00001CFC117021E71F100020CDA0023D0EB1C
:1024D000030063EB01012D2208E0FF1D27F0070731
:1024E000F7E80201EEE72A0504D52B228DF8242017
:1024F000012203E0EA070FD02022F7E70DF12008C0
:10250000089218E000200A90C5F302504FF00A0B21
:10251000022803D001CF00210022EFE7FF1D27F0A2
:102520000707F7E80201F7E75A460A9BFDF703FFA2
:10253000303208F8012D50EA0102F5D1ADEB080068
:1025400000F1200B680701D44FF00109D94502DDE5
:10255000A9EB0B0000E000208146002506E009A859
:102560005246405D0D9990476D1C761C0898854237
:10257000F5DB04E0302052460D999047761CB9F106
:102580000001A9F10109F5DC05E018F8010B52463C
:102590000D999047761CBBF10001ABF1010BF4DC07
:1025A000641CFAE6092801000A88504080EA0010FD
:1025B000C0B2120A82EA002282EAC00282EA101045
:1025C000088070470149FDF741BE0000E02E6542DA
:1025D00013B54FF0FF33012269460248FFF7DCF9DB
:1025E00000981CBD48030020FEF726FBFFF75CFCAB
:1025F000FFF762FBFFF72EFBFFF7C0FBFFF7DAFBED
:10260000FFF746FB00F07DFBFEE701460020842932
:1026100000D0C81C704700002DE9F05F4FF0000AA1
:102620000A9F0C46054681F800A0C9780220994609
:10263000164605F10C0B4FF00108102921D2DFE8F6
:1026400001F008082133444A51585F727D8694D2C4
:10265000D2FBFD2E02D0FE2E08D020E1E07085F8DE
:1026600003A0AE70207B20F0010006E0E07085F84A
:1026700003A0AE70207B40F001002073284600F0DC
:1026800027FB01E1EE7084F804A03146284600F0F3
:1026900023FB207BC00705D085F804A085F805A0A2
:1026A000052049E0032047E02E71700807D0A0788C
:1026B000401CA07084F800A084F80380EFE031464D
:1026C000284600F009FB042036E06E7131462846AA
:1026D00000F002FBE4E7AE713146284600F0FCFA58
:1026E000062029E0EE713146284600F0F5FA072071
:1026F00022E02E723146284600F0EEFA08201BE058
:10270000A868314666F31F20A860284600F0E4FA66
:10271000207BC00705D0E87808B10B200CE00C2026
:102720000AE0092008E0A868314640EA0640A860AF
:10273000284600F0D1FA0A20E070A5E0A8683146EA
:1027400040EA0660A860284600F0C6FAE3E721796F
:10275000481C207101F80B603146284600F0BCFA95
:102760002079E9788842DAD08EE0A86800215D4BB4
:102770004FEA102CE5228818401C400800EB400866
:1027800053F82880E04518D9A0F101029142F2D314
:1027900001EB410053F82010614511D103EB80009B
:1027A0005FEA00080CD098F80410284600F094FA6C
:1027B0002878B04209D00E2008E00146E6D3E7E7CA
:1027C0000E20E07085F814615EE00D20E07085F861
:1027D0001461207998F80610884255D2091A584495
:1027E000FDF715FD50E00E2903D02988B6EB112F17
:1027F00001D0207001E084F8008085F81561287907
:10280000C00709D00F20E0700D20607320780228E7
:1028100045D084F800A042E0206958B3026B22B191
:10282000A868010A2046904720BB2078022821D0C2
:10283000032020701EE0FFE7607BC0F10D002844FC
:1028400080F81661607B401E10F0FF0060731BD1A2
:10285000D4E904012A4600F083F948B92069026BE3
:10286000002AE5D0A868010A204690470028DFD05A
:1028700084F8008084F80380B9F1000004D040F2AD
:1028800023122946FDF7AAFC2078012807D1A87950
:102890006071208908B9A4F80AA0401C2081B9F110
:1028A000000F02D0E97889F8031067B1E078F8707A
:1028B000207938716079401C787120893881A0783E
:1028C0007881207B387384F802A02078022806D112
:1028D000B9F1000F03D0B5F81411A9F80010207851
:1028E000BDE8F09F444500082DE9F04FC8B083686B
:1028F00088464793C1684691046945944269449269
:10290000964682694392C5694295A946056A4195F2
:10291000466A4096B34600264FEA0D0758F826C08F
:1029200047F826C0761C102EF8DB102607EB860A27
:102930005AF8087C4FEA774C8CEAF74C8CEA972CD3
:102940005AF83C7C4FEAF71888EAB74888EAD70774
:10295000BC445AF81C8C5AF8407C4744BC444DF89F
:1029600026C0761C6F46402EE0DB00264FEAB217E9
:1029700087EAF22787EA726C02EA090725EA020869
:1029800087EA0807BC44204F57F8268008EB0B075E
:10299000BC445DF82670AB460CEB070A4FEAB30760
:1029A00087EA733787EAB35C81EA04074D4601EA98
:1029B000040891461F400EEB0A02A64687EA080764
:1029C0000C46BC441946761C0AEB0C03402ECDDBAA
:1029D000479E33448360469B1944C1604599214416
:1029E0000161449971444161439911448161429963
:1029F0004944C16141992944016240995944416265
:102A000048B0BDE8F08F0000444400082DE9F041D3
:102A10000446008892B0C0F3C500C0F1770000F012
:102A20003F0680200D468DF8000004F1080747217D
:102A3000E8460DF10100761CFDF7E9FB08EB060006
:102A40002178C171218806F10802090A8171216883
:102A5000090C41712168090E01712179C170A188A9
:102A6000090A81706168090C41706068010E08F8FC
:102A700006106946204600F033F8F8782870B878D8
:102A800068707878A8703878E870F8792871B87923
:102A9000687112B0BDE8F081002101604160084911
:102AA00081600849C16008490161084941610849DC
:102AB00081610849C1610849016208494162704762
:102AC00067E6096A85AE67BB72F36E3C3AF54FA5BF
:102AD0007F520E518C68059BABD9831F19CDE05BEB
:102AE0002DE9F041044600681546884600EBC50113
:102AF00090B02160814202D26168491C6160C0F3DC
:102B0000C50727E0C7F14006B54200D22E46E019BE
:102B1000324641462830FDF761FB3744AD1BB044D7
:102B2000402F17D104F1280300206E4603EB8001EB
:102B300006EB8002CF7817708F7857704F789770B8
:102B40000978401CD1701028F0DB31462046FFF791
:102B5000CBFE0027002DD5D110B0BDE8F0810000DC
:102B60002DE9F043A1B014460F46050030D004F122
:102B7000020804F58B7604F21D196846FFF78CFFF6
:102B8000202205F110016846FFF7AAFF0A224146FC
:102B90006846FFF7A5FFE27804F10C016846FFF7ED
:102BA0009FFF022204F58A716846FFF799FF07220A
:102BB00031466846FFF794FF1EA96846FFF726FFD7
:102BC000062249461EA8FDF734FB28B1022062E028
:102BD000012021B0BDE8F08332780020CDE91A0051
:102BE000D6F801001A90B6F80500ADF86C0017B1E0
:102BF0000020398816E003204DE000BF00EBC00341
:102C00003B4494F807C093F80380C44508D194F876
:102C100008C093F80480C44502D19B78934203D046
:102C2000401C80B28142E9D8814220D1102901D3D1
:102C3000042030E0DDE91A31DFF890C013EB0C0816
:102C4000D5E9023C41F10001B8EB030371EB0C0143
:102C500001D205201FE000EBC0013944E379CB70BD
:102C6000237A0B718A703988491C398017E000215A
:102C7000CDE91C1100EBC001394451F8052F1C921D
:102C800014468988DDE91A32ADF874101D99E31AEB
:102C9000914104D3062085F83400002099E700EB29
:102CA000C000384456F8011F40F8051FB1888180E4
:102CB000D5E90232DDE91A011B1A8A4101D2C5E9C0
:102CC0000201012085F8340082E70000808D5B005E
:102CD0004FF6FF710180704738B504460A460088F8
:102CE000ADF8000069461046FFF75EFCBDF8000035
:102CF000208038BD10B500B9012000F085FC00200F
:102D000010BD10B500F066FD002010BD7FB50D466A
:102D100004464169B0F9080081B1A16971B1FFF7BA
:102D200074FCD4E905128DE80700D4E900102B46A5
:102D3000226901F098F9039004B070BDFFF765FCBB
:102D400003A9CDE90001208A2B4682B2D4E9001004
:102D500001F05CF9012801D00020EDE70398EBE7D2
:102D60002DE9F0413A48C17800296FD0017B427BC0
:102D700000F1340491422CD002790121012A01D1C1
:102D8000217021744279012A03D184F8201084F83B
:102D900030108279012A02D1217084F82010C27982
:102DA000012A02D1217484F83010027A012A00D15C
:102DB0002170427A012A00D12174827A012A01D13C
:102DC00084F82010C27A012A01D184F83010017BE6
:102DD00041730025FDF722FF04EB051607467068D6
:102DE0003178381A05292DD0012906D002290BD0B7
:102DF000032914D0042925D11BE0B1890122B06830
:102E0000FDF706FF022007E064281BD3B1890022EA
:102E1000B068FDF7FDFE03203070776012E0B0F57A
:102E2000FA7F0FD3B1890122B068FDF7F1FE0420CB
:102E3000F2E7642806D3B1890022B068FDF7E8FE06
:102E4000052030706D1CEDB2042DC3D3BDE8F081B8
:102E50007C0000202DE9F041184C0F4605466669BC
:102E60002068001D00F0D0FA38B9206890F82C10C6
:102E700001208840A1698143A161681C07D137B155
:102E80002168BDE8F0410E48091D00F013BB206821
:102E90003544B5424560216805D2A068BDE8F041DF
:102EA000091D00F0EFBA6068091D00F0EBFA206B15
:102EB000854200D22563BDE8F081000014000020A7
:102EC0007C0500202DE9F041054600F0FFFA2E4C6C
:102ED0002069401C206120682C4F10B1E06940B38C
:102EE0002DE025602069012829D1002606EB860007
:102EF00007EB800000F0B8FA761C072EF6D32348C3
:102F00008C3000F0B1FA2148A03000F0ADFA1F4833
:102F1000B43000F0A9FA1D48C83000F0A5FA1B48EB
:102F2000DC3000F0A1FA19488C3060601430A060E9
:102F300005E02068E96AC06A884200D82560E06A36
:102F4000401CE062E96A0120A26988401043A06148
:102F500001EB810007EB8000291D00F0ABFA00F0C7
:102F6000D5FAE06900280CD02068E96AC06A884276
:102F700007D207494FF080500860BFF34F8FBFF36F
:102F80006F8FBDE8F081000014000020A004002035
:102F900004ED00E030B4026C0B46002A0BD0C1688F
:102FA0001144C1604468A14201D30168C16030BCD2
:102FB0001846FDF713B930BC70472DE9F041856B19
:102FC000174604460026026C82B1C7B1E068FDF7DF
:102FD00005F9E168206C091AE1602268914202D289
:102FE0006168081AE060022F16D017E02068A8B9BF
:102FF000606801F0DBF80646002060600EE0A06823
:10300000FDF7ECF8216CA0680844A0606168884274
:1030100004D32068A06001E005B16D1E6D1CA5639E
:103020003046BDE8F08110B5044690F8510058B123
:1030300001280CD002280FD0502080F31188BFF354
:103040004F8FBFF36F8FFEE7206B00F073FA2046BF
:10305000BDE8104000F06EBA10BD000010484FF4FB
:103060000051420706D0C01D0D4920F00700411A4B
:10307000C1F500510B4A00230144C2E9000308399D
:10308000103A21F0070111604B600B600B1AC0E988
:10309000001393604FF000405360D0607047000011
:1030A0009005002060000020144E154CA6F1C807C2
:1030B0004FF08058DFF84C9012E000BF00F006FAA5
:1030C000F068C568281D00F09FF92069401E206146
:1030D000E068401EE06000F019FA2846FFF7A3FF01
:1030E000E0680028EAD138680128F9D9C9F80080D9
:1030F000BFF34F8FBFF36F8FF2E70000680500202A
:103100001400002004ED00E00346009829B102609D
:10311000C0E90F31012100F047BC0060F8E72DE95C
:10312000F0479A46DDE9098481466FF00303206B7E
:1031300003EB82021044089D20F00706700707D0B9
:10314000502080F31188BFF34F8FBFF36F8FFEE7DE
:1031500023180A5C83F834200A5C12B1401C102842
:10316000F6D3002784F84370072D00D30625E562C7
:10317000C4E91157201D00F082F904F1180000F095
:103180007EF92461C5F107006462A061E76484F8F8
:10319000507052464946304600F00EF92060B8F1B2
:1031A000000F01D0C8F80040BDE8F08730B51149E4
:1031B00000E011460A688242FBD34B685C188442E7
:1031C00003D1406818444860084643681C1894427C
:1031D00009D1084C103C2468A24209D052681A4414
:1031E00042600A6812680260814200D0086030BD07
:1031F0000460F9E76000002010B5044600F066F9AD
:10320000A06B28B15FF0000400F080F9204610BDEB
:103210000124F9E706484168096829B14168C9688D
:10322000C9684968016370474FF0FF31FAE7000051
:103230001400002008484068401C4FF0500080F304
:10324000118804D0BFF34F8FBFF36F8FFEE7BFF33A
:103250004F8FBFF36F8FFEE7680000202DE9F0412C
:10326000044600F033F994F9455004F1240609E0CE
:10327000606A48B1304601F02FF808B100F038FA22
:103280006D1E6DB2002DF3DC4FF0FF3684F8456003
:1032900000F03CF900F01AF994F9445004F11007D9
:1032A00009E0206948B1384601F016F808B100F08D
:1032B0001FFA6D1E6DB2002DF3DC84F84460BDE88A
:1032C000F04100F023B900002DE9F0410546002748
:1032D00000F0B6FA314E306808B9FFF7BFFEF0686B
:1032E00005424BD1C5B3083568070ED005F007007D
:1032F000C0F108000544680707D0502080F311880A
:10330000BFF34F8FBFF36F8FFEE72DB37068854219
:1033100034D82248103001460C6801E020460C46A3
:103320006168A94202D221680029F7D131688C4234
:1033300024D007682168016060680837411B1029A4
:103340000FD96019420708D0502080F31188BFF3CD
:103350004F8FBFF36F8FFEE710E041606560FFF7AE
:1033600025FF61687068401A7060B268904200D2B0
:10337000B060F06801430020C4E9000100F0E6FFFE
:10338000780707D0502080F31188BFF34F8FBFF329
:103390006F8FFEE73846BDE8F08100005000002046
:1033A0000449086818B10868826C521C8264086875
:1033B000704700001400002010B5031F4FF0807408
:1033C0001C601B1F21F001011960191F024B0B60CB
:1033D000143940380A6010BD3532000810B5044673
:1033E00000F07AFE2168401A606005D0FCF79EFF6D
:1033F00001460448FCF75CFFA06000F06DFE206011
:1034000010BD000000007A44D0E9013201699A60E1
:10341000D0E901235A604A68824201D182684A6039
:10342000002202610868401E08600868704710B5F5
:10343000040006D000F04AF8A46B00F067F82046BC
:1034400010BD502080F31188BFF34F8FBFF36F8FF3
:10345000FEE70000034B036003F154000860802086
:1034600010607047F400002000F108014FF0FF32B7
:10347000C0E90112C16001610021016070470021B3
:103480000161704730B50B685A1C02D000F1080288
:1034900002E0026904E02246546825689D42FAD998
:1034A00053684B6099608A60516008610168491CEB
:1034B000016030BD42684A6093688B6093685960D0
:1034C000916008610168491C01607047502080F3D9
:1034D0001188BFF34F8FBFF36F8F0A494868401CB4
:1034E000486001280CD10848006810F0FF0F07D091
:1034F000502080F31188BFF34F8FBFF36F8FFEE72B
:10350000704700006800002004ED00E008494868AA
:1035100028B1401E486001D180F3118870475020C7
:1035200080F31188BFF34F8FBFF36F8FFEE700006A
:103530006800002070B5002827D0144DA0F10804C1
:103540006168E868014207D1502080F31188BFF319
:103550004F8FBFF36F8FFEE722683AB1502080F3A0
:103560001188BFF34F8FBFF36F8FFEE78143616018
:1035700000F066F960686968084468602046FFF7F3
:1035800015FEBDE8704000F0E1BE70BD50000020A7
:103590004FF0E02000210161816105494FF47A720A
:1035A0000968B1FBF2F1491E4161072101617047D1
:1035B0001000002010B5FCF7EBFD114910280ED3C8
:1035C00000F1E02090F8F0030A78904207D25020F2
:1035D00080F31188BFF34F8FBFF36F8FFEE7094869
:1035E0000068896800F4E060884207D9502080F3C1
:1035F0001188BFF34F8FBFF36F8FFEE710BD000040
:10360000680000200CED00E010B5020014D00F4857
:10361000806B38B1502080F31188BFF34F8FBFF318
:103620006F8FFEE700F00CF900211046FFF712FC47
:1036300000F08CFE002807D105494FF0805008604B
:10364000BFF34F8FBFF36F8F10BD00001400002039
:1036500004ED00E070B50D4604000BD095B11E4A94
:10366000906BB8B1502080F31188BFF34F8FBFF338
:103670006F8FFEE7502080F31188BFF34F8FBFF3A9
:103680006F8FFEE7502080F31188BFF34F8FBFF399
:103690006F8FFEE700F0D4F85269236859199342FE
:1036A00004D98B420AD9914202D807E08B42FAD959
:1036B000881A21600021FFF7CDFB00E0216000F0B7
:1036C00045FE002807D105494FF080500860BFF340
:1036D0004F8FBFF36F8F70BD1400002004ED00E02A
:1036E00002498A6A026049694160704714000020FB
:1036F00001490120486270471400002010B50C46B3
:1037000050B1094909681831FFF7BCFE2046BDE8F1
:1037100010400121FFF79EBB502080F31188BFF3BA
:103720004F8FBFF36F8FFEE71400002070B50400C9
:103730004BD0A26CA2B1606C884200D30146E06A13
:10374000884242D0012A40D1204D2A6894420FD1AC
:10375000502080F31188BFF34F8FBFF36F8FFEE7C8
:10376000502080F31188BFF34F8FBFF36F8FFEE7B8
:10377000E162A269002A02DBC1F10701A161144ED6
:1037800000EB8000616906EB800081421DD1201DA5
:10379000FFF73AFE012150B9E06A00EB800256F8CB
:1037A000222022B9AA6901FA00F08243AA61E06AE4
:1037B000AA6981401143A96100EB800006EB8000FB
:1037C000211DBDE87040FFF775BE70BD14000020DC
:1037D000A004002010B586B00024039405AA04A913
:1037E00003A80494FFF736FEDDE903010094CDE958
:1037F000011000230EA11048059A00F034FC0F4977
:103800000028486311D0502080F31188BFF34F8FF8
:10381000BFF36F8F4FF0FF3008630120C8614C6128
:1038200006B0BDE8104000F047B806B010BD00007B
:1038300049444C4500000000A93000081400002055
:103840000248816B491C816370470000140000200E
:103850001448816B11B1012141627047002141621E
:103860008169B1FA81F1C1F11F0101EB81020E49B9
:1038700051F822306BB101EB820101F108034A6873
:1038800052684A609A4201D152684A60D168016028
:103890007047502080F31188BFF34F8FBFF36F8FB5
:1038A000FEE7000014000020A0040020014840684A
:1038B00070470000500000201CB526490878019090
:1038C000FF20087008788DF800009DF800009DF832
:1038D000002000F0F000904207D0502080F31188C3
:1038E000BFF34F8FBFF36F8FFEE79DF800001A4BB9
:1038F00000F0500018700720986005E09DF8002047
:1039000052008DF80020401E9DF800201206F5D4CC
:103910009860032807D0502080F31188BFF34F8FA1
:10392000BFF36F8FFEE74FF4407098600198087006
:103930000A48016841F470010160016841F070417A
:103940000160FFF725FE00205860FCF7EBFB00202C
:103950001CBD000000E400E06800002020ED00E055
:10396000F8B517460E46050014D0DEB105FB06F08B
:103970004830FFF7A9FC04000AD0002084F8460074
:1039800004F148023B46314628460094FFF7BCFB51
:103990002046F8BD502080F31188BFF34F8FBFF34E
:1039A0006F8FFEE70020E3E770B50D46040025D0D9
:1039B000FFF78CFDD4E90F20216802FB0011616044
:1039C0000021A1632168A1600A46D4E90F01401ECD
:1039D00000FB0121E16021464FF0FF3001F8440F68
:1039E000487004F110008DB1FFF73EFD04F1240092
:1039F000FFF73AFDFFF78AFD012070BD502080F3EC
:103A00001188BFF34F8FBFF36F8FFEE72169002945
:103A1000F0D000F061FC0028ECD004494FF0805059
:103A20000860BFF34F8FBFF36F8FE3E704ED00E053
:103A30002DE9FF4782B01D468A464FF0000804007A
:103A400003D0BAF1000F08D011E0502080F31188A4
:103A5000BFF34F8FBFF36F8FFEE7206C38B150205C
:103A600080F31188BFF34F8FBFF36F8FFEE7022DF6
:103A70000AD1E06B012807D0502080F31188BFF3F2
:103A80004F8FBFF36F8FFEE700F018FB3F4F4FF0F3
:103A900000094FF0805648B9049838B1502080F39F
:103AA0001188BFF34F8FBFF36F8FFEE7FFF70EFD57
:103AB000A06BE16B884207D3022D05D00498D0B1EA
:103AC000B8F1000F1AD01EE02A4651462046FFF7F3
:103AD00074FA616A19B104F1240000F0FDFB20B111
:103AE0003E60BFF34F8FBFF36F8FFFF70FFD0120D5
:103AF00006B0BDE8F087FFF709FD22E06846FFF752
:103B0000EFFD4FF00108FFF701FDFFF799FEFFF70A
:103B1000DDFC94F94400401C01D184F8449094F9F0
:103B20004500401C01D184F84590FFF7EFFC04A943
:103B3000684600F031FA30B12046FFF78FFB00F005
:103B400005FC0020D4E7FFF7C1FCA06BE16B8842C5
:103B500013D1FFF7DBFC04F110000499FFF7CEFD51
:103B60002046FFF77BFB00F0F1FB00289ED13E6072
:103B7000BFF34F8FBFF36F8F98E7FFF7C7FC204667
:103B8000FFF76CFB00F0E2FB90E7000004ED00E0C3
:103B90002DE9F0471F4690468946040003D0B9F14D
:103BA000000F08D011E0502080F31188BFF34F8F31
:103BB000BFF36F8FFEE7206C38B1502080F311887F
:103BC000BFF34F8FBFF36F8FFEE7022F0AD1E06B79
:103BD000012807D0502080F31188BFF34F8FBFF327
:103BE0006F8FFEE7FFF7E6FC5020EFF3118680F3BE
:103BF0001188BFF34F8FBFF36F8FA06BE16B8842CB
:103C000006D3022F04D0002086F31188BDE8F08788
:103C100094F945503A4649462046FFF7CEF9681CCC
:103C200004D06D1C84F845500120EDE7606A00283F
:103C3000FAD004F1240000F04FFB0028F4D0B8F1D2
:103C4000000FF1D00121C8F80010EDE770B50E4665
:103C5000040009D0206C78B1502080F31188BFF3A4
:103C60004F8FBFF36F8FFEE7502080F31188BFF3B3
:103C70004F8FBFF36F8FFEE7206848B9606838B197
:103C8000502080F31188BFF34F8FBFF36F8FFEE793
:103C9000FFF790FC5020EFF3118580F31188BFF3FC
:103CA0004F8FBFF36F8FA16BE06B884218D994F9E7
:103CB0004500491CA163411C04D0401C84F8450008
:103CC00001200EE0606A0028FAD004F1240000F020
:103CD00003FB0028F4D0002EF2D001203060EFE783
:103CE000002085F3118870BD2DE9F747002683B0C9
:103CF0008A46040003D0BAF1000F08D011E050202A
:103D000080F31188BFF34F8FBFF36F8FFEE7206CF6
:103D100038B1502080F31188BFF34F8FBFF36F8FFE
:103D2000FEE700F0CBF9DFF8F4804FF000094FF028
:103D3000805748B9059838B1502080F31188BFF3F7
:103D40004F8FBFF36F8FFEE7FFF7C0FBA56BC5B1C9
:103D500051462046FFF71EF96D1EA563206950B13C
:103D600004F1100000F0B8FA28B1C8F80070BFF3F1
:103D70004F8FBFF36F8FFFF7C9FB012006B0BDE87F
:103D8000F087059808B11EB106E0FFF7BFFB27E0FA
:103D90006846FFF7A5FC0126FFF7B8FBFFF750FDCB
:103DA000FFF794FB94F94400401C01D184F844903F
:103DB00094F94500401C01D184F84590FFF7A6FB1B
:103DC00005A9684600F0E8F8002820460AD0FFF769
:103DD00045FA00F0BBFA2046FFF70EFA0028B3D0F0
:103DE0000020CBE7FFF708FA90B104F12400059911
:103DF000FFF784FC2046FFF731FA00F0A7FA00280D
:103E0000A2D1C8F80070BFF34F8FBFF36F8F9BE74D
:103E10002046FFF723FA00F099FA95E704ED00E059
:103E20002DE9F343002683B00400354609D0206C09
:103E300078B1502080F31188BFF34F8FBFF36F8F9D
:103E4000FEE7502080F31188BFF34F8FBFF36F8FD1
:103E5000FEE700F033F9DFF83C814FF000094FF046
:103E6000805748B9049838B1502080F31188BFF3C7
:103E70004F8FBFF36F8FFEE7FFF728FBA06BC8B132
:103E8000401EA063206810B9FFF78AFA60602069BD
:103E900050B104F1100000F01FFA28B1C8F800700A
:103EA000BFF34F8FBFF36F8FFFF730FB012005B0DB
:103EB000BDE8F083049808B166B10FE03DB1502031
:103EC00080F31188BFF34F8FBFF36F8FFEE7FFF7CB
:103ED0001DFB5DE06846FFF703FC0126FFF716FBBC
:103EE000FFF7AEFCFFF7F2FA94F94400401C01D151
:103EF00084F8449094F94500401C01D184F8459021
:103F0000FFF704FB04A9684600F046F800282046A5
:103F100012D0FFF7A3F900F019FA2046FFF76CF969
:103F20000028A9D09DB3FFF7D1FA606A50B3206B87
:103F30000068C0F1070126E0FFF75EF9E0B12068F4
:103F400038B9FFF7C3FA606800F07CF90546FFF75F
:103F5000DDFA04F124000499FFF7D0FB2046FFF7B7
:103F60007DF900F0F3F9002886D1C8F80070BFF39E
:103F70004F8FBFF36F8F7FE72046FFF76FF900F099
:103F8000E5F979E700216068FFF7D0FB9FE7FFE7DD
:103F900000208CE704ED00E02DE9F0410C4605001F
:103FA00011D0C4B1FFF792FA174B5A696E682068B6
:103FB000911B471C17D02F689B6A9F4219D09642CD
:103FC00017D8012410E0502080F31188BFF34F8FE1
:103FD000BFF36F8FFEE7502080F31188BFF34F8F40
:103FE000BFF36F8FFEE70024FFF790FA2046BDE88D
:103FF000F081884205D9401A20602846FFF770FBFF
:10400000F1E700202060DCE7140000202DE9FF5FCD
:104010008346DDE90E87994616468A469000FFF7EB
:1040200053F905001CD05420FFF74EF9040014D0BA
:104030000020256384F85100CDE90240CDE90087D6
:104040004B46324651465846FFF769F82046FEF780
:1040500039FF012004B0BDE8F09F2846FFF76AFA57
:104060004FF0FF30F6E7F0B585B0DDE90B640A9D4F
:10407000A6B1DCB1542700972663022684F851606C
:10408000002604AFCDE90246CDE90057FFF747F817
:104090002046FEF717FF049805B0F0BD502080F3CE
:1040A0001188BFF34F8FBFF36F8FFEE7502080F36F
:1040B0001188BFF34F8FBFF36F8FFEE70548C169CB
:1040C00019B1806B18B100207047012070470220A1
:1040D000704700001400002001484069704700004C
:1040E000140000202DE9F0412E4C0027A06B40B1B8
:1040F000206A401C2062606A00B101273846BDE892
:10410000F0816669761C666113D16068006838B119
:10411000502080F31188BFF34F8FBFF36F8FFEE7FE
:104120006068A1686160A060A06A401CA062FFF79F
:1041300071F8206BDFF87080864209D360680068F0
:1041400080B16068C068C568686886420DD2206327
:104150002068C06A00EB800158F821000128CAD904
:104160000127C8E74FF0FF30F1E7281DFFF74CF9B2
:10417000A86A18B105F11800FFF746F9E86A0121AD
:10418000A26981401143A16100EB800108EB81002D
:10419000291DFFF78FF9E86A2168C96A8842CDD3E3
:1041A0000127CBE714000020A004002070B5040014
:1041B0004FF0000140D0214D2868844207D05020A4
:1041C00080F31188BFF34F8FBFF36F8FFEE7A06CB2
:1041D00038B1401EA064636CE26A9A422CD040B1B0
:1041E0002AE0502080F31188BFF34F8FBFF36F8F09
:1041F000FEE7201DFFF708F9114A012150B9E06AD6
:1042000000EB800352F8233023B9AB6901FA00F0C8
:104210008343AB61606CE062C0F10700A061E06ABB
:10422000AB6981401943A96100EB800002EB80007B
:10423000211DFFF73FF90121084670BD1400002041
:10424000A004002070B504004FF0000038D0204DCD
:10425000E16A2A68D26A914233D2A069002804DB5D
:104260002868C06AC0F10700A0611A4E01EB810105
:10427000606906EB810188421ED1201DFFF7C4F85A
:10428000012150B9E06A00EB800256F8222022B9E1
:10429000AA6901FA00F08243AA612868C06AE06254
:1042A000AA6981401143A96100EB800006EB800000
:1042B000211DFFF7FFF802E02868C06AE0620120D4
:1042C00070BD616C2A68D26A9142F8D370BD00005B
:1042D00014000020A00400202DE9F041C068C4684B
:1042E000ACB104F118000746FFF78EF8154DA86B26
:1042F0000126A0B139461448FFF7DCF8E06A2968C6
:10430000C96A88421CD901206E62BDE8F081502044
:1043100080F31188BFF34F8FBFF36F8FFEE7201D2F
:10432000FFF772F8E16AAA6906FA01F01043A86182
:1043300001EB81000449B43901EB8000211DDBE76A
:104340000020E2E714000020540500202DE9F0478A
:104350002C4D00242746A86B38B1FFF7B7F8A86B9F
:10436000401EA863A86B40B146E0502080F311883E
:10437000BFF34F8FBFF36F8FFEE72969224E0120F5
:10438000D1B3A6F1B40980463068E8B1F068C468DA
:1043900004F11800FFF738F8201DFFF735F8E06A40
:1043A000AA6908FA00F11143A96100EB800109EB49
:1043B0008100211DFFF77EF8E06A2968C96A8842FA
:1043C000E2D3C5F82480DFE70CB1FEF723FF2C6AA7
:1043D00044B14646FFF786FE00B16E62641EF9D115
:1043E00000202862686A38B1084901273807086048
:1043F000BFF34F8FBFF36F8FFFF788F83846BDE8E4
:10440000F0870000140000205405002004ED00E0B7
:104410000C500008F11D0008000000000000000022
:10442000800000000000000000000000000000000C
:104430000000000001020304060708090000000054
:1044400001020304982F8A4291443771CFFBC0B513
:10445000A5DBB5E95BC25639F111F159A4823F924F
:10446000D55E1CAB98AA07D8015B8312BE853124A8
:10447000C37D0C55745DBE72FEB1DE80A706DC9B69
:1044800074F19BC1C1699BE48647BEEFC69DC10F15
:10449000CCA10C246F2CE92DAA84744ADCA9B05C51
:1044A000DA88F97652513E986DC631A8C82703B014
:1044B000C77F59BFF30BE0C64791A7D55163CA0622
:1044C00067292914850AB72738211B2EFC6D2C4D2E
:1044D000130D385354730A65BB0A6A762EC9C2811C
:1044E000852C7292A1E8BFA24B661AA8708B4BC2B2
:1044F000A3516CC719E892D1240699D685350EF4DC
:1045000070A06A1016C1A419086C371E4C77482792
:10451000B5BCB034B30C1C394AAAD84E4FCA9C5B08
:10452000F36F2E68EE828F746F63A5781478C88459
:104530000802C78CFAFFBE90EB6C50A4F7A3F9BE3B
:10454000F27871C600000000320909000000000086
:10455000010000007C1F2B00000000000200000092
:10456000890C0C000000000004000000ED0E0E039A
:104570000C0D000005000000D91C1C01000000000B
:1045800006000000680303000000000007000000B0
:10459000772020000000000008000000752424009F
:1045A000000000000B000000590606010400000096
:1045B0000C0000005B0A0A0000000000140000006C
:1045C000D614140302030000150000009F0202032A
:1045D0000001000016000000DC19190000000000B6
:1045E00017000000A81717030405000018000000BA
:1045F000181E340000000000190000001765650057
:10460000000000001A000000AA16180000000000B8
:104610001B000000901A1D00000000001C0000009C
:1046200043101000000000001D000000730E100079
:10463000000000001E000000271C1C0000000000FD
:104640001F000000F62030000000000020000000E5
:10465000B91C1C000000000021000000681C1C00A8
:104660000000000022000000ED161600000000000F
:1046700023000000F41616000000000024000000D3
:10468000DE1525000000000025000000D406070309
:1046900004050000260000000906070304050000C9
:1046A00027000000FE25260320210000280000002E
:1046B000E604050302030000290000001C040403B3
:1046C000020300002A0000001C021200000000008B
:1046D0002B00000084020303000100002C000000F6
:1046E000DD040903020300002D000000E8020303BB
:1046F000000100002E0000000B020200000000007C
:104700002F000000990308030001000030000000A2
:10471000290D15010C00000031000000270C1400C9
:1047200000000000320000004E2525031213000097
:1047300033000000C404050302030000360000003B
:104740000F1B1B0318190000370000000319190084
:10475000000000003D000000A748480000000000E5
:104760003E000000B71A1A00000000003F000000E1
:1047700077B5B5000000000040000000BFE1E10097
:104780000000000041000000762A2A00000000001E
:1047900042000000940606030203000043000000EC
:1047A000150404000000000045000000F30B1E018A
:1047B0000A000000460000007C12260310110000D1
:1047C0004900000026252603202100004A000000A1
:1047D00014141400000000004B0000009E2323036B
:1047E0001E1F00004C000000982121031E1F000026
:1047F0004D0000008F030A0308090000500000006C
:104800000E04040302030000510000006A161600A3
:10481000000000005200000031273303242500006F
:104820005300000016252500000000005400000081
:104830008F35350332330000550000008C333300D0
:10484000000000005600000005353503323300003B
:1048500057000000963333000000000059000000AC
:10486000E71C1C00000000005A000000B7383800A8
:10487000000000005B0000003F2A2A00000000004A
:104880005C00000036212100000000005D000000F7
:104890002F5151000000000064000000AF1A2200F8
:1048A00000000000650000006620750000000000A8
:1048B000660000009E2075000000000067000000F8
:1048C000D014390000000000680000003820740097
:1048D00000000000690000005D3E3F000000000095
:1048E0006A0000008A2C2C00000000006B00000011
:1048F0006C404100000000006C00000020545C008F
:10490000000000006D000000B9090900000000006F
:104910006E00000054FEFE03010200006F00000064
:10492000221012031011000070000000AE0C0C00E9
:1049300000000000710000007C242700000000003F
:1049400072000000ED2C2C0000000000730000003D
:104950000440400000000000740000004C161800E5
:10496000000000007500000080060603040500003A
:1049700076000000380E0E000000000077000000F6
:10498000740C0C030A0B00007800000086616100C3
:104990000000000079000000ED02020300010000A9
:1049A0007A000000CB020203000100007B0000003F
:1049B000FA717103000100007C00000057233900E8
:1049C000000000007D000000CB0606000000000093
:1049D0007E000000DC4F51034F5000007F000000BC
:1049E000192323000000000080000000E2232300C0
:1049F00000000000810000002E16180000000000DA
:104A0000820000001D0D0D0000000000830000006A
:104A1000DFFFFF000000000084000000550E2700AB
:104A200000000000850000000612120000000000D7
:104A300086000000E52B2B0000000000870000002E
:104A4000CB080800000000008800000001161600D6
:104A50000000000089000000C30E100000000000EC
:104A60008A0000006D247800000000008B00000028
:104A7000A82B2B03292A00008C000000B52929004F
:104A8000000000008D0000002F202000000000002A
:104A90008E00000048F3F300000000008F000000CB
:104AA000830E100000000000900000007F5D5D009C
:104AB0000000000092000000676464000000000035
:104AC000930000009A2436000000000094000000CB
:104AD000B23C4E000000000095000000C81E3C00E3
:104AE00000000000A2000000BD0809000000000056
:104AF000C0000000242C360000000000E10000008F
:104B0000D041490000000000E6000000A32A2A006E
:104B100000000000E70000006928280000000000F5
:104B2000E8000000973F410000000000E90000009D
:104B300023B6B60000000000EA0000009628280016
:104B400000000000EB000000B32A2A000000000073
:104B5000F10000005A20200000000000F2000000D8
:104B600068343C0000000000F300000055353D01B2
:104B700034000000F40000005F06060000000000A2
:104B8000F50000008202020000000000F6000000B4
:104B9000B826260000000000F700000051131300A3
:104BA00000000000F800000008FEFE0303040000FF
:104BB000F9000000CC24240000000000FA000000EE
:104BC000311E1E0000000000FB000000AA121200AF
:104BD00000000000FC0000002C1212000000000089
:104BE000FD0000005333360000000000FE0000000E
:104BF0002E0909000000000000010000472A2A03D6
:104C000008090000010100008309090000000000FC
:104C100002010000BB20E8030001000003010000C6
:104C20005CEBED00000000000401000092050E00A6
:104C30000000000005010000B31B3D000000000063
:104C4000060100000C121700000000000701000020
:104C500085FFFF000000000008010000311C20005B
:104C600000000000090100001A10140000000000FC
:104C70000A010000C1FFFF03020300000B01000056
:104C800023FFFF03020300000C0100000E040403D5
:104C9000020300000D0100006DD5D70000000000E8
:104CA0000E0100003B131400000000000F01000083
:104CB0001634350000000000130100007E1F2000A4
:104CC000000000001401000012313200000000005A
:104CD000150100003E1E1E0000000000180100002B
:104CE000462121000000000019010000300D0D00D8
:104CF000000000001A0100007B2323032021000094
:104D00001B0100004A909100000000001C010000FF
:104D1000632020031E1F00001D01000089283103AD
:104D2000262700001E010000D2353903323300006F
:104D30001F010000011717031415000020010000D7
:104D4000141717031415000022010000FB2E2E007B
:104D500000000000230100000A39390000000000B3
:104D60002B01000013606200000000002C01000015
:104D7000D9161600000000002D010000F33A3A0099
:104D800000000000360100001C11110000000000AE
:104D9000370100005F747400000000004001000053
:104DA000F31414030203000041010000580202033F
:104DB0000001000042010000F39595000000000092
:104DC000430100004E9393030001000044010000E2
:104DD00084929200000000004A010000179EA70084
:104DE000000000004B0100005BE6E900000000004D
:104DF0004C010000ECEFEF00000000004D0100004E
:104E0000E76D6D00000000004E010000480A0A0036
:104E1000000000004F010000E11818000000000031
:104E200050010000F5545400000000005301000040
:104E3000C70505000000000054010000634646005D
:104E4000000000005E010000E814FC00000000000B
:104E5000680100000B191900000000007201000039
:104E60004B576D0000000000730100000A1A1A0081
:104E700000000000740100001A8C8C00000000008B
:104E800075010000752A2A0000000000770100006B
:104E9000FB8C8C00000000007C010000E814140072
:104EA00000000000810100009385850302030000DB
:104EB000820100008410100304050000830100003B
:104EC0000448480304050000840100000825250368
:104ED00020210000860100009CEEEE000000000092
:104EE0008B01000000D4D400000000008C01000001
:104EF00032A0A000000000008D010000B66C6C0024
:104F000000000000900100006EFEFE03040500009A
:104F100091010000B7060603040500009A01000095
:104F2000A0353500000000009B0100006A0303006B
:104F3000000000009C01000021060603040500009B
:104F40009D0100004D07070304050000B3010000A8
:104F5000862E2E0000000000B4010000C1090900E7
:104F600000000000B50100001E010100000000006B
:104F7000B8010000422323000000000028230000A5
:104F800071898900000000002D2300007522220095
:104F90000000000064320000722C2C0300010000AD
:104FA00065320000FE3B3B031E1F0000663200001E
:104FB0008C3535030405000067320000F92E2E03FE
:104FC00000010000683200004D3636031C1D000051
:104FD00069320000312B2B03000100007332000006
:104FE0005EF9F90300010000763200008B333300D4
:104FF00000000000773200000712120310110000B9
:105000007832000014050500000000006465666148
:10501000756C745461736B00E4BDBFE883BDEFBC75
:105020009A256420E585A8E68A9BEFBC9A25642032
:10503000E5898DE696B9EFBC9A256420E5908EE669
:1050400096B9EFBC9A256420E5B7A6E696B9EFBC01
:105050009A256420E58FB3E696B9EFBC9A256420C3
:1050600020E68A9B313A256420E68A9B323A202545
:105070006420E68A9B333A202025642020E68A9B20
:1050800034203A202564200D0A000000AC500008AE
:1050900000000020F40000005C230008A05100087C
:1050A000F4000020E43000006C2300080000000041
:1050B0000100000010000000000000000024F400C7
:1050C00000000000000000000000000000000000E0
:1050D00000000000000000000000000000000000D0
:1050E00000000000000000000000000000000000C0
:1050F00000000000000000000000000000000000B0
:10510000000000000000000000000000000000009F
:105110000000000000000000AAAAAAAA00000000E7
:10512000000000000000000000000000000000007F
:10513000000000000000000000000000000000006F
:10514000000000000000000000000000000000005F
:10515000000000000000000000000000000000004F
:1051600000000000000801404000000000000000B6
:105170000000000000080140800000000000000066
:1051800000000000000C01400100000000000000D1
:1051900000000000000C01400200000000000000C0
:04000005080000ED02
:00000001FF
